:02000000804E30
:030003000200EB0D
:03000B00020106E9
:10005000C2B6C280C2B7C282C238753500753605D5
:100060007F00758811C2B3C2B50000D2B5790075A2
:100070008901758AD8758CF075B80175A882C28916
:10008000D2A8D2AF3038FDC238E5B04535F5B074EE
:10009000008535F065F0702274018535F065F070EB
:1000A0002974028535F065F07030EFB40F0040051B
:1000B000D2B60200E7C2B60200E7EFB40F00400577
:1000C000D2800200E7C2800200E7EFB40F004005D3
:1000D000D2B70200E7C2B70200E7EFB40F00400555
:1000E000D2820200E7C28205358093E536D5E0066C
:1000F0007536057535001536C2B50000D2B5E590E8
:10010000FFD238D2B532B2A009B90A08C2B4000091
:0B011000D2B47900758AD8758CF032EB
:00000001FF
