:100000000200502F582D2B0906033D08050200075A
:1000100004014F4E28060E800F303132333435360E
:1000200037383900414C41524D41204143544956E3
:100030004100414C41524D412044455341435449B4
:0300400056410026
:10005000D281D280C20F783075370475330475327F
:1000600003753102753001C2001201A3C280120172
:10007000981201EB1201F6C2801201981201EB12E4
:1000800001F612008F20000280F81200B180F37E8A
:10009000EF7D047B008EA0E5A07C0413500F0BDCE9
:1000A000FAEE23FEDDEFC200E5000200B0D200EB65
:1000B000229000039386F008B5F0030200C0D20F2F
:1000C00090001993C0E054F075F00484C2801201CE
:1000D00098D2801201EB1201F1D0E0540F75F004B8
:1000E000A4120198D2801201EB1201FDD5375430D1
:1000F0000F5478007C00C28074001201981201EB4A
:100100001201F6C28074041201981201EB1201F67A
:05011000900024EC93B7
:10011700C0E054F075F00484C280120198D28012B6
:1001270001EB1201F1D0E0540F75F004A41201980D
:10013700D2801201EB1201FD080C80D002019778E2
:10014700007C00C28074001201981201EB1201F6C4
:10015700C28074041201981201EB1201F69000326A
:10016700EC93602CC0E054F075F00484C280120157
:1001770098D2801201EB1201F1D0E0540F75F00410
:10018700A4120198D2801201EB1201FD080C80D055
:1001970022F540E58054C04540F580227900900063
:1001A70014E993C280C0E054F075F00484319812CA
:1001B70001EB1201F1C28075F004D0E0540FA431B5
:1001C700981201EB1201F109B904D6C2807400310B
:1001D700981201EB1201F6C280740431981201EBF8
:1001E7001201F622D28100C281227A28DDFE227B0B
:0D01F7002931F1DBFC22790A31F6D9FC2216
:00000001FF
